:100000000C945D000C9485000C9485000C94850084
:100010000C9485000C9485000C9485000C9485004C
:100020000C9485000C9485000C9485000C9485003C
:100030000C9485000C9485000C9485000C9485002C
:100040000C945B020C9485000C94CB020C94A502DA
:100050000C9485000C9485000C9485000C9485000C
:100060000C9485000C94850000000008000201003B
:100070000003040700000000000000000000000072
:10008000250028002B0000000000240027002A0083
:10009000040404040404040402020202020203032E
:1000A0000303030301020408102040800102040836
:1000B0001020010204081020860411241FBECFEF77
:1000C000D8E0DEBFCDBF11E0A0E0B1E0E6E7F9E0A7
:1000D00002C005900D92A431B107D9F721E0A4E147
:1000E000B1E001C01D92A03CB207E1F710E0CDE500
:1000F000D0E004C02197FE010E94B304CC35D107A3
:10010000C9F70E94FD020C94B9040C94000090E021
:10011000FC01EC55FF4F249180579F4FFC018491C7
:10012000882399F090E0880F991FFC01EA57FF4F50
:10013000A591B491FC01E458FF4F859194918FB73C
:10014000F894EC91E22BEC938FBF0895AF92BF929D
:10015000CF92DF92EF92FF920F931F93CF93DF9393
:100160006C017B018B01040F151FEB015E01AE18C2
:10017000BF08C017D10759F06991D601ED91FC91E4
:100180000190F081E02DC6010995892B79F7C50111
:10019000DF91CF911F910F91FF90EF90DF90CF9063
:1001A000BF90AF900895FC01538D448D252F30E012
:1001B000842F90E0821B930B541710F0CF96089574
:1001C00001970895FC01918D828D981761F0A28DA1
:1001D000AE0FBF2FB11D5D968C91928D9F5F9F7367
:1001E000928F90E008958FEF9FEF0895FC01918D1D
:1001F000828D981731F0828DE80FF11D858D90E08A
:1002000008958FEF9FEF0895FC01918D228D892F26
:1002100090E0805C9F4F821B91098F73992708950E
:100220008AE191E00E94040121E0892B09F420E099
:10023000822F089580E090E0892B29F00E94100120
:1002400081110C9400000895FC01A48DA80FB92F12
:10025000B11DA35ABF4F2C91848D90E001968F73EE
:100260009927848FA689B7892C93A089B1898C910D
:10027000837080648C93938D848D981306C002885C
:10028000F389E02D80818F7D80830895EF92FF9226
:100290000F931F93CF93DF93EC0181E0888F9B8DA9
:1002A0008C8D98131AC0E889F989808185FF15C063
:1002B0009FB7F894EE89FF896083E889F989808186
:1002C0008370806480839FBF81E090E0DF91CF9155
:1002D0001F910F91FF90EF900895F62E0B8D10E077
:1002E0000F5F1F4F0F731127E02E8C8D8E110CC0E6
:1002F0000FB607FCFACFE889F989808185FFF5CF31
:10030000CE010E942401F1CFEB8DEC0FFD2FF11DEA
:10031000E35AFF4FF0829FB7F8940B8FEA89FB896D
:1003200080818062CFCFCF93DF93EC01888D8823CB
:10033000B9F0AA89BB89E889F9898C9185FD03C048
:10034000808186FD0DC00FB607FCF7CF8C9185FF2D
:10035000F2CF808185FFEDCFCE010E942401E9CF4D
:10036000DF91CF91089590E0FC01E859FF4F24916F
:10037000FC01EC55FF4F3491FC01E057FF4FE49135
:10038000EE23C9F0222339F0233001F1A8F4213003
:1003900019F1223029F1F0E0EE0FFF1FE458FF4F72
:1003A000A591B4918FB7F894EC91611126C0309566
:1003B0003E233C938FBF08952730A9F02830C9F021
:1003C000243049F7809180008F7D03C080918000A8
:1003D0008F7780938000DFCF84B58F7784BDDBCFAC
:1003E00084B58F7DFBCF8091B0008F778093B00074
:1003F000D2CF8091B0008F7DF9CF3E2BDACF1F9303
:10040000CF93DF93182FEB010E948700209739F4D8
:1004100060E0812FDF91CF911F910C94B301CF3F0A
:10042000D10511F461E0F5CFE12FF0E0E859FF4F7D
:10043000E491E33031F140F4E130B1F0E230E1F049
:10044000C038D1057CF7E4CFE73029F1E83059F125
:10045000E430B1F780918000806280938000D09377
:100460008B00C0938A0004C084B5806884BDC7BD7A
:10047000DF91CF911F91089584B5806284BDC8BD7E
:10048000F7CF80918000806880938000D0938900AE
:10049000C0938800EDCF8091B00080688093B00059
:1004A000C093B300E5CF8091B00080628093B0002C
:1004B000C093B400DDCF1F920F920FB60F9211249C
:1004C0002F933F938F939F93AF93BF938091BC01E2
:1004D0009091BD01A091BE01B091BF013091BB01CF
:1004E00023E0230F2D3758F50196A11DB11D209350
:1004F000BB018093BC019093BD01A093BE01B0935A
:10050000BF018091B7019091B801A091B901B0915C
:10051000BA010196A11DB11D8093B7019093B80156
:10052000A093B901B093BA01BF91AF919F918F9100
:100530003F912F910F900FBE0F901F90189526E8B6
:10054000230F0296A11DB11DD2CF1F920F920FB69D
:100550000F9211242F933F934F935F936F937F9349
:100560008F939F93AF93BF93EF93FF938AE191E0B3
:100570000E942401FF91EF91BF91AF919F918F91C4
:100580007F916F915F914F913F912F910F900FBE8F
:100590000F901F9018951F920F920FB60F92112473
:1005A0002F938F939F93EF93FF93E0912A01F09104
:1005B0002B018081E0913001F091310182FD1BC05F
:1005C0009081809133018F5F8F7320913401821766
:1005D00041F0E0913301F0E0E65EFE4F958F8093AD
:1005E0003301FF91EF919F918F912F910F900FBE4B
:1005F0000F901F9018958081F4CF789484B5826015
:1006000084BD84B5816084BD85B5826085BD85B5B6
:10061000816085BD80916E00816080936E00109234
:1006200081008091810082608093810080918100AF
:100630008160809381008091800081608093800040
:100640008091B10084608093B1008091B00081609E
:100650008093B00080917A00846080937A008091CA
:100660007A00826080937A0080917A008160809322
:100670007A0080917A00806880937A001092C1009D
:1006800086E00E94870085E00E948700E0912A01B1
:10069000F0912B0182E08083E0912601F091270107
:1006A0001082E0912801F09129018FEC8083109253
:1006B0003201E0912E01F0912F0186E08083E091DC
:1006C0002C01F0912D01808180618083E0912C01CB
:1006D000F0912D01808188608083E0912C01F09160
:1006E0002D01808180688083E0912C01F0912D01A3
:1006F00080818F7D808328E7E22EF12C32E1232E4A
:10070000312C4CE0442E512C56E0652E712CCFEF4D
:10071000D0E064EBC62ED12C0CE310E08FE0A82EC5
:10072000B12C90E0892E90E0992E8AE191E00E9410
:100730000401181619060CF049C08AE191E00E94E4
:10074000E200C0978733910508F040C0FC01E555F1
:10075000FC4F0C94B304E203110416041B042004A0
:1007600025042A042F0434043904E603E603E603CF
:10077000E603E603E603E60343044D04570461047D
:10078000E6036104E603E603E603E603E603E603A5
:10079000E603E603E603E603E603E603E603E60311
:1007A000E603E603E603E603E603E603E603E60301
:1007B000E603E603E603E6033E04480452045E044F
:1007C000E6035E0410921901109218018091000155
:1007D000882369F080911401909115018C30910566
:1007E00009F48BC00CF071C0069709F47DC06091CC
:1007F00018017091190186E00E94FF0160911601B5
:100800007091170185E00E94FF018114910409F4A1
:100810008CCF0E941001882309F47ECF0E94000033
:100820007BCFB0921901A0921801D0CF109319017B
:1008300000931801CBCFF0921901E0921801C6CFB6
:10084000D0921901C0921801C1CFD0931901C09361
:100850001801BCCF1092170110921601B7CFB092B9
:100860001701A0921601B2CF109317010093160141
:10087000ADCFF0921701E0921601A8CFD0921701E8
:10088000C0921601A3CFD0931701C09316019ECF3B
:10089000709215016092140199CF50921501409207
:1008A000140194CF30921501209214018FCF88E16A
:1008B00090E0909315018093140188CF109200016D
:1008C00085CF91E09093000181CF8231910561F055
:1008D000489709F08CCFD0931901C0931801D09399
:1008E0001701C093160183CF1093190100931801CB
:1008F00010931701009316017ACF109219011092EC
:100900001801109217011092160171CFEAE1F1E07F
:100910001382128288EE93E0A0E0B0E08483958396
:10092000A683B78385E091E09183808385EC90E096
:100930009587848784EC90E09787868780EC90E0A9
:10094000918B808B81EC90E0938B828B82EC90E09A
:10095000958B848B86EC90E0978B868B118E128E14
:10096000138E148E0895EE0FFF1F0590F491E02D65
:060970000994F894FFCF8A
:1009760001000000004601A600D30093010401E235
:0409860000F6000077
:00000001FF
