:020000040000FA
:100000000C9462000C948A000C948A000C948A0070
:100010000C948A000C948A000C948A000C948A0038
:100020000C948A000C948A000C948A000C948A0028
:100030000C948A000C948A000C948A000C948A0018
:100040000C94B2020C948A000C9422030C94FC02CF
:100050000C948A000C948A000C948A000C948A00F8
:100060000C948A000C948A000000000024002700F1
:100070002A0000000000250028002B0000000000DE
:1000800023002600290004040404040404040202DA
:100090000202020203030303030301020408102007
:1000A0004080010204081020010204081020000012
:1000B0000008000201000003040700000000000027
:1000C0000000700511241FBECFEFD8E0DEBFCDBF0A
:1000D00011E0A0E0B1E0EAE4FBE002C005900D927F
:1000E000A431B107D9F721E0A4E1B1E001C01D922C
:1000F000A63CB207E1F710E0C2E6D0E004C02197C9
:10010000FE010E949D05C136D107C9F70E94540324
:100110000C94A3050C940000AF92BF92CF92DF9293
:10012000EF92FF920F931F93CF93DF936C017B01AC
:100130008B01040F151FEB015E01AE18BF08C0173D
:10014000D10759F06991D601ED91FC910190F081B0
:10015000E02DC6010995892B79F7C501DF91CF9173
:100160001F910F91FF90EF90DF90CF90BF90AF90D5
:100170000895FC01538D448D252F30E0842F90E0AD
:10018000821B930B541710F0CF9608950197089592
:10019000FC01918D828D981761F0A28DAE0FBF2F5B
:1001A000B11D5D968C91928D9F5F9F73928F90E0B1
:1001B00008958FEF9FEF0895FC01918D828D981720
:1001C00031F0828DE80FF11D858D90E008958FEF5D
:1001D0009FEF0895FC01918D228D892F90E0805C26
:1001E0009F4F821B91098F739927089580E291E0B8
:1001F0000E94EA0021E0892B09F420E0822F089573
:1002000080E090E0892B29F00E94F60081110C9487
:1002100000000895FC01A48DA80FB92FB11DA35AA9
:10022000BF4F2C91848D90E001968F739927848F16
:10023000A689B7892C93A089B1898C918370806439
:100240008C93938D848D981306C00288F389E02DDA
:1002500080818F7D80830895EF92FF920F931F938B
:10026000CF93DF93EC0181E0888F9B8D8C8D981369
:100270001AC0E889F989808185FF15C09FB7F89475
:10028000EE89FF896083E889F989808183708064C1
:1002900080839FBF81E090E0DF91CF911F910F910C
:1002A000FF90EF900895F62E0B8D10E00F5F1F4F1B
:1002B0000F731127E02E8C8D8E110CC00FB607FC2A
:1002C000FACFE889F989808185FFF5CFCE010E94B8
:1002D0000A01F1CFEB8DEC0FFD2FF11DE35AFF4F1B
:1002E000F0829FB7F8940B8FEA89FB898081806246
:1002F000CFCFCF93DF93EC01888D8823B9F0AA8903
:10030000BB89E889F9898C9185FD03C0808186FDD0
:100310000DC00FB607FCF7CF8C9185FFF2CF80811F
:1003200085FFEDCFCE010E940A01E9CFDF91CF9189
:100330000895833081F028F4813099F08230A9F05B
:1003400008958730A9F08830C9F08430B1F48091E5
:1003500080008F7D03C0809180008F778093800024
:10036000089584B58F7784BD089584B58F7DFBCFC4
:100370008091B0008F778093B00008958091B00095
:100380008F7DF9CFCF93DF93282F30E0F901E2552D
:10039000FF4F8491F901E656FF4FD491F901EA57D6
:1003A000FF4FC491CC23A1F081110E949901EC2F41
:1003B000F0E0EE0FFF1FE458FF4FA591B491EC91D0
:1003C000ED2381E090E009F480E0DF91CF91089582
:1003D00080E090E0FACF1F93CF93DF93282F30E097
:1003E000F901E255FF4F8491F901E656FF4FD49190
:1003F000F901EA57FF4FC491CC23A9F0162F8111C0
:100400000E949901EC2FF0E0EE0FFF1FEE58FF4F16
:10041000A591B4918FB7F894EC91111108C0D095C3
:10042000DE23DC938FBFDF91CF911F910895DE2BE8
:10043000F8CFCF93DF9390E0FC01E656FF4F249175
:100440008A579F4FFC0184918823C9F090E0880F60
:10045000991FFC01E859FF4FA591B491FC01EE589A
:10046000FF4FC591D49161110DC09FB7F8948C9145
:10047000209582238C938881282328839FBFDF9136
:10048000CF910895623051F49FB7F8943C91822F38
:10049000809583238C93E8812E2BEFCF8FB7F89430
:1004A000EC912E2B2C938FBFEACF1F93CF93DF932A
:1004B000182FEB0161E00E941902209739F460E0E7
:1004C000812FDF91CF911F910C94EB01CF3FD1058C
:1004D00011F461E0F5CFE12FF0E0E255FF4FE49138
:1004E000E33031F140F4E130B1F0E230E1F0C03816
:1004F000D1057CF7E4CFE73029F1E83059F1E43059
:10050000B1F780918000806280938000D0938B004F
:10051000C0938A0004C084B5806884BDC7BDDF91E4
:10052000CF911F91089584B5806284BDC8BDF7CF77
:1005300080918000806880938000D0938900C09370
:100540008800EDCF8091B00080688093B000C093A8
:10055000B300E5CF8091B00080628093B000C0937B
:10056000B400DDCF1F920F920FB60F9211242F937C
:100570003F938F939F93AF93BF938091C2019091CC
:10058000C301A091C401B091C5013091C10123E024
:10059000230F2D3758F50196A11DB11D2093C101E0
:1005A0008093C2019093C301A093C401B093C5018D
:1005B0008091BD019091BE01A091BF01B091C00199
:1005C0000196A11DB11D8093BD019093BE01A09322
:1005D000BF01B093C001BF91AF919F918F913F91A7
:1005E0002F910F900FBE0F901F90189526E8230FA4
:1005F0000296A11DB11DD2CF1F920F920FB60F927E
:1006000011242F933F934F935F936F937F938F9317
:100610009F93AF93BF93EF93FF9380E291E00E948B
:100620000A01FF91EF91BF91AF919F918F917F91BF
:100630006F915F914F913F912F910F900FBE0F904F
:100640001F9018951F920F920FB60F9211242F939F
:100650008F939F93EF93FF93E0913001F0913101DD
:100660008081E0913601F091370182FD1BC09081BD
:10067000809139018F5F8F7320913A01821741F089
:10068000E0913901F0E0E05EFE4F958F80933901F3
:10069000FF91EF919F918F912F910F900FBE0F902F
:1006A0001F9018958081F4CF789484B5826084BDC2
:1006B00084B5816084BD85B5826085BD85B5816066
:1006C00085BD80916E00816080936E0010928100E4
:1006D000809181008260809381008091810081609F
:1006E0008093810080918000816080938000809160
:1006F000B10084608093B1008091B00081608093EC
:10070000B00080917A00846080937A0080917A00B2
:10071000826080937A0080917A00816080937A0071
:1007200080917A00806880937A001092C10061E025
:1007300086E00E94190261E085E00E94190260E0F3
:1007400084E00E94190262E082E00E94190262E0E5
:1007500083E00E94190261E08AE00E94190261E0D0
:1007600089E00E941902E0913001F091310182E0AC
:100770008083E0912C01F0912D011082E0912E01F7
:10078000F0912F018FEC808310923801E0913401B9
:10079000F091350186E08083E0913201F0913301E0
:1007A000808180618083E0913201F091330180810A
:1007B00088608083E0913201F0913301808180680C
:1007C0008083E0913201F091330180818F7D8083BD
:1007D00028E7C22ED12C3CE0232E312C46E0442EBB
:1007E000512CCFEFD0E054EBA52EB12C772473948D
:1007F0000CE310E08FE0882E912CEE24E394F12C92
:1008000080E291E00E94EA00181619060CF049C037
:1008100080E291E00E94C800C0978733910508F0FC
:1008200040C0FC01EA5EFB4F0C949D054D04B404EE
:10083000B904BE04C304C804CD04D204D704DC0444
:100840005104510451045104510451045104E6046B
:10085000F004FC040C0502050A055104510451047E
:1008600051045104510451045104510451045104E0
:1008700051045104510451045104510451045104D0
:100880005104510451045104510451045104E10430
:10089000EB04F5040705FF04050510921F011092F3
:1008A0001E0180910001882309F4FEC080911A0185
:1008B00090911B018C30910509F4C9C00CF0AFC0B8
:1008C000069709F4BBC080911801882341F184E0A8
:1008D0000E94C201019709F0FAC0D0931F01C09392
:1008E0001E01D0931D01C0931C0183E00E94C20130
:1008F000892B41F41092170110921601F092150104
:10090000E092140182E00E94C201892B41F410920E
:1009100017011092160110921501109214016091A6
:100920001E0170911F0186E00E94550260911C011A
:1009300070911D0185E00E9455026091140189E0CB
:100940000E94EB01609116018AE00E94EB0180E0B9
:1009500090E0892B09F454CF0E94F600882309F413
:1009600045CF0E94000042CF90921F0180921E014D
:1009700098CF10931F0100931E0193CFD0921F01B7
:10098000C0921E018ECFB0921F01A0921E0189CF8E
:10099000D0931F01C0931E0184CF10921D011092AD
:1009A0001C017FCF90921D0180921C017ACF109381
:1009B0001D0100931C0175CFD0921D01C0921C0136
:1009C00070CFB0921D01A0921C016BCFD0931D017E
:1009D000C0931C0166CF50921B0140921A0161CF57
:1009E00030921B0120921A015CCF82E190E090933B
:1009F0001B0180931A0155CF88E190E0F8CF7092E7
:100A000019014FCF109219014CCF7092180110921A
:100A1000000147CF109218017092000142CF82313D
:100A20009105F1F0489709F04ECFD0931F01C09384
:100A30001E01D0931D01C0931C0145CF10931F01CF
:100A400000931E0110931D0100931C013CCF1092D6
:100A50001F0110921E0110921D0110921C0133CF34
:100A600010931F0100931E0110931D0100931C01A0
:100A700083E00E94C201892B41F410921701109269
:100A80001601F0921501E092140182E00E94C20169
:100A9000892B09F018CF10921701109216011092AD
:100AA0001501109214010FCF80911901882301F3D1
:100AB00082E00E94C201892B41F4F0921701E0927A
:100AC0001601109215011092140183E0DFCF1092ED
:100AD0001F0110921E0110921D0110921C0105CFE2
:100AE000E0E2F1E01382128288EE93E0A0E0B0E051
:100AF00084839583A683B78385E091E09183808387
:100B000085EC90E09587848784EC90E097878687D2
:100B100080EC90E0918B808B81EC90E0938B828BCA
:100B200082EC90E0958B848B86EC90E0978B868BA3
:100B3000118E128E138E148E0895EE0FFF1F0590E6
:100B4000F491E02D0994F894FFCF01000000002CEF
:0E0B5000018C00B9007901EA00C800DC000049
:107E0000112484B714BE81FFF0D085E080938100F7
:107E100082E08093C00088E18093C10086E0809377
:107E2000C20080E18093C4008EE0C9D0259A86E02C
:107E300020E33CEF91E0309385002093840096BBD3
:107E4000B09BFECF1D9AA8958150A9F7CC24DD24C4
:107E500088248394B5E0AB2EA1E19A2EF3E0BF2EE7
:107E6000A2D0813461F49FD0082FAFD0023811F036
:107E7000013811F484E001C083E08DD089C08234E0
:107E800011F484E103C0853419F485E0A6D080C0E4
:107E9000853579F488D0E82EFF2485D0082F10E0AE
:107EA000102F00270E291F29000F111F8ED06801E7
:107EB0006FC0863521F484E090D080E0DECF843638
:107EC00009F040C070D06FD0082F6DD080E0C81688
:107ED00080E7D80618F4F601B7BEE895C0E0D1E017
:107EE00062D089930C17E1F7F0E0CF16F0E7DF06D8
:107EF00018F0F601B7BEE89568D007B600FCFDCFD4
:107F0000A601A0E0B1E02C9130E011968C91119780
:107F100090E0982F8827822B932B1296FA010C0160
:107F200087BEE89511244E5F5F4FF1E0A038BF0790
:107F300051F7F601A7BEE89507B600FCFDCF97BE46
:107F4000E89526C08437B1F42ED02DD0F82E2BD052
:107F50003CD0F601EF2C8F010F5F1F4F84911BD097
:107F6000EA94F801C1F70894C11CD11CFA94CF0C13
:107F7000D11C0EC0853739F428D08EE10CD085E9AC
:107F80000AD08FE07ACF813511F488E018D01DD067
:107F900080E101D065CF982F8091C00085FFFCCF94
:107FA0009093C60008958091C00087FFFCCF809118
:107FB000C00084FD01C0A8958091C6000895E0E648
:107FC000F0E098E1908380830895EDDF803219F02E
:107FD00088E0F5DFFFCF84E1DECF1F93182FE3DFCA
:107FE0001150E9F7F2DF1F91089580E0E8DFEE27F6
:047FF000FF270994CA
:027FFE00040479
:00000001FF
